:100000000C9434000C9485030C9446000C94460028
:100010000C9446000C9446000C9446000C94460048
:100020000C9446000C9446000C9446000C94460038
:100030000C9446000C9446000C9461030C9446000A
:100040000C9446000C9446000C9446000C94460018
:100050000C9446000C9446000C9446000C94460008
:100060000C9446000C94460011241FBECFEFD8E03C
:10007000DEBFCDBF11E0A0E0B1E001C01D92A63708
:10008000B107E1F70E94AC040C94B0070C94000097
:100090008FE284B982E185B917B887E088B982EF29
:1000A0008AB98DE08BB95C9A88EB9BE020E931E05E
:1000B000F9013197F1F70197D9F75C9888EB9BE04C
:1000C00020E931E0F9013197F1F70197D9F75C9A0E
:1000D00088EB9BE020E931E0F9013197F1F70197D6
:1000E000D9F75C9888EB9BE020E931E0F901319782
:1000F000F1F70197D9F780E480937C0084E880933E
:100100007A008FE380937E0098E095BF82E08DBBFC
:1001100080E58CBD83E2809380008DE18093810037
:100120008FEF809389008093880010928B008AEF74
:1001300080938A0014BC15BC16BC8FE087BD84B5C3
:10014000826084BD85B5856085BD80916E008260CA
:1001500080936E001092C0009093C10086E080935F
:10016000C2001092C50087E68093C4007894109274
:100170006A0181E0809332015C9A83E080933B01C5
:1001800080917A00806480937A00089580648093DF
:100190007C0085E38A95F1F780917A0080648093F2
:1001A0007A0080917A0084FFFCCF80917A00806190
:1001B00080937A0090917800809179002091790065
:1001C0002093C60008958EBD0DB407FEFDCF8EB5F9
:1001D000089595E3292F2A95F1F728989A95F1F734
:1001E0008EBD0DB407FEFDCF8EB585E38A95F1F780
:1001F0008FEF8EBD0DB407FEFDCF8EB595E39A95BA
:10020000F1F7289A089595E3292F2A95F1F7289870
:100210009A95F1F7805E8EBD0DB407FEFDCF8EB5C9
:1002200085E38A95F1F76EBD0DB407FEFDCF8EB55F
:1002300085E38A95F1F7289A08951F93782F8130E6
:1002400009F4605E85E3982F9A95F1F728988A95CE
:10025000F1F76EBD0DB407FEFDCF8EB585E38A952F
:10026000F1F7A0E0B0E030E095E31FEF1BC077238B
:1002700061F4603A51F01EBD0DB407FEFDCF8EB59E
:10028000FD01E050FF4F808309C0FA01EA0FFB1F18
:1002900080818EBD0DB407FEFDCF8EB5892F8A9566
:1002A000F1F71196A217B30714F3289A80E091E0B2
:1002B0001F910895EF92FF921F93DF93CF9300D089
:1002C00000D00F92CDB7DEB788EE93E020E931E0A1
:1002D000F9013197F1F70197D9F711E0198381E01E
:1002E00061E07E010894E11CF11CA70121E00E945D
:1002F0001D01198381E062E0A70121E00E941D0138
:1003000083E0898381E063E0A70121E00E941D0171
:10031000198381E065E0A70121E00E941D0187E0CB
:10032000898381E066E0A70121E00E941D0112E1BE
:1003300019831A831B831C831D8381E06AE0A70154
:1003400025E00E941D0119831A831B831C831D83D2
:1003500081E060E1A70125E00E941D0185E089831D
:1003600081E061E1A70121E00E941D018EE1898306
:1003700081E060E0A70121E00E941D0188EE93E08A
:1003800020E931E0F9013197F1F70197D9F70F90A2
:100390000F900F900F900F90CF91DF911F91FF90D2
:1003A000EF9008950F931F938C0180E061EEA801F8
:1003B00020E00E941D0180E060EAA80125E00E9483
:1003C0001D0180E49CE90197F1F7289A88EC90E000
:1003D00020E931E0F9013197F1F70197D9F7289831
:1003E00080E49CE90197F1F71F910F910895289AF5
:1003F00080E197E220E931E0F9013197F1F70197C7
:10040000D9F72898089580E49CE9FC013197F1F729
:1004100028980197F1F787E28EBD0DB407FEFDCF56
:100420008EB580E49CE90197F1F780E78EBD0DB4AD
:1004300007FEFDCF8EB580E49CE90197F1F7289A7D
:1004400008956F927F928F929F92AF92BF92CF92B8
:10045000DF92EF92FF920F931F93CF93DF938091E0
:100460003B01843079F08530B9F0833009F01AC14E
:1004700084E080933B010E94C600909365018093C5
:10048000640110C185E080933B010E94C6009093F7
:1004900045018093440106C183E080933B010E94A3
:1004A000C60090935F0180935E016091440170915A
:1004B00045016058704080E090E00E94400620E0D6
:1004C00030E24AE850E40E94F6063B014C0160939A
:1004D0006B0170936C0180936D0190936E0160913C
:1004E00028017091290180912A0190912B0120E02F
:1004F00030E040EF5CEB0E94F60620E030E040E2A6
:1005000050E40E943F055B016C01609328017093E9
:10051000290180932A0190932B016091240170910D
:100520002501809126019091270120E030E040EFE5
:100530005CEB0E94F60620E030E040E250E40E94CE
:100540003F057B018C01609324017093250180930A
:10055000260190932701C401B3010E941406609301
:10056000C600C601B501A60195010E94F6065B0111
:100570006C0160935A0170935B0180935C019093CE
:100580005D01C801B701A80197010E94F6067B0131
:100590008C0160936001709361018093620190937C
:1005A0006301C401B301A40193010E94F6069B01FB
:1005B000AC01609156017091570180915801909162
:1005C00059010E943F056093560170935701809333
:1005D00058019093590160914001709141018091BF
:1005E000420190914301A60195010E943F0560934D
:1005F00040017093410180934201909343016091C7
:100600004601709147018091480190914901A801EC
:1006100097010E943F0560934601709347018093C4
:10062000480190934901C601B5010E940F06EB01F4
:1006300077FF03C0D095C195DF4FC801B7010E9475
:100640000F06CB0177FF03C0909581959F4F8C17C4
:100650009D075CF460913301709134018091350104
:1006600090913601A60195010AC060913301709105
:1006700034018091350190913601A80197010E94C3
:100680003F0560933301709334018093350190935B
:10069000360180916F0190917001019690937001E5
:1006A00080936F01DF91CF911F910F91FF90EF9099
:1006B000DF90CF90BF90AF909F908F907F906F9082
:1006C00008951F920F920FB60F9211242F933F930C
:1006D0004F935F936F937F938F939F93AF93BF934A
:1006E000EF93FF930E942102FF91EF91BF91AF9191
:1006F0009F918F917F916F915F914F913F912F913A
:100700000F900FBE0F901F90189578941F920F9224
:100710000FB60F9211248F9381E080936A018F911D
:100720000F900FBE0F901F9018952F923F924F92EF
:100730005F926F927F928F929F92AF92BF92CF9271
:10074000DF92EF92FF920F931F93DF93CF9300D02E
:1007500000D0CDB7DEB7A0904001B0904101C0906D
:100760004201D0904301A0924E01B0924F01C0923D
:100770005001D092510160904601709047018090E5
:100780004801909049016092520170925301809209
:10079000540190925501209056013090570140909D
:1007A00058015090590120923C0130923D014092F5
:1007B0003E0150923F018091330190913401A0910C
:1007C0003501B091360189839A83AB83BC838093D2
:1007D000710190937201A0937301B09374016091C1
:1007E0006F017091700170932D0160932C0120E0D6
:1007F00030E040E050E020934001309341014093CD
:1008000042015093430120934601309347014093A6
:10081000480150934901209356013093570140936A
:100820005801509359012093330130933401409380
:100830003501509336011092700110926F0180E0E3
:1008400090E00E9440067B018C01C601B501A80121
:1008500097010E94A7050E945D0760932E01709387
:100860002F018093300190933101C401B301A8019D
:1008700097010E94A7050E945D076093370170935E
:1008800038018093390190933A01C201B101A80166
:1008900097010E94A7050E945D076093660170930F
:1008A0006701809368019093690169817A818B81E6
:1008B0009C81A80197010E94A7050E945D077B010A
:1008C0008C0160934A0170934B0180934C0190938B
:1008D0004D0120E030E040E050E00E94A305882375
:1008E000B1F060E078E088E697E4A80197010E9403
:1008F000A70520E030E04AE753E40E943F056093FB
:100900002001709321018093220190932301609133
:1009100020017091210180912201909123010E9478
:10092000140670938900609388000F900F900F90C9
:100930000F90CF91DF911F910F91FF90EF90DF907B
:10094000CF90BF90AF909F908F907F906F905F906F
:100950004F903F902F9008956F927F928F929F9229
:10096000AF92BF92CF92DF92EF92FF920F931F93BD
:10097000DF93CF93CDB7DEB72E970FB6F894DEBFD7
:100980000FBECDBF0E9448000E945A0180E06BE07C
:100990000E9403013E010894611C711C82E0882EB4
:1009A000912C8C0E9D1E80916F0190917001805250
:1009B0009E4410F00E94950380916A01882399F06B
:1009C00080E061E6A30121E00E941D018981982F4A
:1009D000917090933201807880937501913011F479
:1009E0005A9A01C05A98809175018823E1F280914A
:1009F00066019091670120916801309169018E87AD
:100A00009D872C873B87D0902E01C0902F01B090FE
:100A10003001A09031011091370100913801F09020
:100A20003901E0903A016D2D7C2D8B2D9A2D212FCF
:100A3000302F4F2D5E2D0E94F20618162CF4DA8608
:100A4000C986B886AF8204C01A870987F886EF8204
:100A500080914A0190914B0120914C0130914D01C0
:100A60008E839D832C833B83809132018A8380E037
:100A700060EAA4012DE00E941D0195CF5058BB27CC
:100A8000AA270ED075C166D130F06BD120F031F4B9
:100A90009F3F11F41EF45BC10EF4E095E7FB51C1DA
:100AA000E92F77D180F3BA17620773078407950798
:100AB00018F071F49EF58FC10EF4E0950B2EBA2F4D
:100AC000A02D0B01B90190010C01CA01A001112454
:100AD000FF27591B99F0593F50F4503E68F11A1600
:100AE000F040A22F232F342F4427585FF3CF469591
:100AF00037952795A795F0405395C9F77EF41F16B3
:100B0000BA0B620B730B840BBAF09150A1F0FF0F7C
:100B1000BB1F661F771F881FC2F70EC0BA0F621F68
:100B2000731F841F48F4879577956795B795F79558
:100B30009E3F08F0B3CF9395880F08F09927EE0FEA
:100B4000979587950895D9D008F481E008950CD041
:100B50000FC107D140F0FED030F021F45F3F19F013
:100B6000F0C0511139C1F3C014D198F39923C9F3DE
:100B70005523B1F3951B550BBB27AA2762177307A3
:100B8000840738F09F5F5F4F220F331F441FAA1F57
:100B9000A9F333D00E2E3AF0E0E830D09150504017
:100BA000E695001CCAF729D0FE2F27D0660F771FC5
:100BB000881FBB1F261737074807AB07B0E809F0A7
:100BC000BB0B802DBF01FF2793585F4F2AF09E3F3C
:100BD000510568F0B6C000C15F3FECF3983EDCF30E
:100BE000869577956795B795F7959F5FC9F7880FB5
:100BF000911D9695879597F90895E1E0660F771F07
:100C0000881FBB1F621773078407BA0720F0621B97
:100C1000730B840BBA0BEE1F88F7E095089504D090
:100C20006894B111D9C00895BCD088F09F5790F056
:100C3000B92F9927B751A0F0D1F0660F771F881F01
:100C4000991F1AF0BA95C9F712C0B13081F0C3D01C
:100C5000B1E00895C0C0672F782F8827B85F39F0BA
:100C6000B93FCCF3869577956795B395D9F73EF460
:100C700090958095709561957F4F8F4F9F4F089508
:100C8000E89409C097FB3EF4909580957095619526
:100C90007F4F8F4F9F4F9923A9F0F92F96E9BB27DC
:100CA0009395F695879577956795B795F111F8CF58
:100CB000FAF4BB0F11F460FF1BC06F5F7F4F8F4FC3
:100CC0009F4F16C0882311F096E911C0772321F0B9
:100CD0009EE8872F762F05C0662371F096E8862F51
:100CE00070E060E02AF09A95660F771F881FDAF7A8
:100CF000880F9695879597F90895990F0008550FD5
:100D0000AA0BE0E8FEEF16161706E807F907C0F091
:100D100012161306E407F50798F0621B730B840B99
:100D2000950B39F40A2661F0232B242B252B21F473
:100D300008950A2609F4A140A6958FEF811D811D13
:100D4000089597F99F6780E870E060E008959FEF4D
:100D500080EC089500240A94161617061806090652
:100D6000089500240A941216130614060506089521
:100D7000092E0394000C11F4882352F0BB0F40F4A9
:100D8000BF2B11F460FF04C06F5F7F4F8F4F9F4FE9
:100D9000089557FD9058440F551F59F05F3F71F06B
:100DA0004795880F97FB991F61F09F3F79F08795D2
:100DB0000895121613061406551FF2CF4695F1DF5B
:100DC00008C0161617061806991FF1CF86957105EB
:100DD000610508940895E894BB2766277727CB011F
:100DE00097F908958ADF08F48FEF08950BD0C0CFEC
:100DF000B1DF28F0B6DF18F0952309F0A2CFA7CF16
:100E00001124EACFC6DFA0F3959FD1F3950F50E0F0
:100E1000551F629FF001729FBB27F00DB11D639FAC
:100E2000AA27F00DB11DAA1F649F6627B00DA11D52
:100E3000661F829F2227B00DA11D621F739FB00DF8
:100E4000A11D621F839FA00D611D221F749F332768
:100E5000A00D611D231F849F600D211D822F762F01
:100E60006A2F11249F5750408AF0E1F088234AF0FE
:100E7000EE0FFF1FBB1F661F771F881F915050404A
:100E8000A9F79E3F510570F05CCFA6CF5F3FECF312
:100E9000983EDCF3869577956795B795F795E79536
:100EA0009F5FC1F7FE2B880F911D9695879597F947
:100EB000089511F40EF44BCF3EC073DFD0F39923A5
:100EC000D9F3CEF39F57550B87FF43D00024A0E6FC
:100ED00040EA900180585695979528F4805C660FFB
:100EE000771F881F20F026173707480730F4621B4A
:100EF000730B840B202931294A2BA695179407944C
:100F0000202531254A2758F7660F771F881F20F0C4
:100F100026173707480730F4620B730B840B200D3C
:100F2000311D411DA09581F7B901842F9158880F7B
:100F30009695879508959F3F31F0915020F48795BD
:100F400077956795B795880F911D9695879597F931
:100F5000089591505040660F771F881FD2F708956B
:040F6000F894FFCF33
:00000001FF
