:1000000012C0B9C220C01FC01EC01DC01CC01BC072
:100010001AC019C018C017C016C015C089C213C0B5
:1000200012C011C010C011241FBECFE5D4E0DEBF46
:10003000CDBF10E0A0E6B0E001C01D92A53DB10724
:10004000E1F79AD3EBC6DCCF8FE287BB82E188BBB6
:1000500014BA87E085BB82EF81BB8DE082BB8EEE58
:1000600086B980E487B988E085BF80E88BBF80E5EA
:100070008DB983E28FBD8DE18EBD19BC8AEF88BD3D
:1000800078941092C900089525B194B137B1382BF6
:1000900037B9349A369A822F08958FB9779BFECF5D
:1000A0008FB108959AE1292F2A95F1F7C0989A9572
:1000B000F1F78FB9779BFECF8FB18AE18A95F1F77F
:1000C0008FEF8FB9779BFECF8FB19AE19A95F1F7B9
:1000D000C09A08959AE1292F2A95F1F7C0989A9528
:1000E000F1F7805E8FB9779BFECF8FB18AE18A9559
:1000F000F1F76FB9779BFECF8FB18AE18A95F1F75F
:10010000C09A08951F93782F813009F4605E8AE1C8
:10011000982F9A95F1F7C0988A95F1F76FB9779B68
:10012000FECF8FB18AE18A95F1F7A0E0B0E030E030
:100130009AE11FEF19C0772359F4603A49F01FB9CB
:10014000779BFECF8FB1FD01E05AFF4F808308C03F
:10015000FA01EA0FFB1F80818FB9779BFECF8FB129
:10016000892F8A95F1F71196A217B30724F3C09A45
:1001700080E690E01F910895EF92FF921F93DF9326
:10018000CF9300D000D00F92CDB7DEB788EE93E0CA
:1001900028EC30E0F9013197F1F70197D9F711E038
:1001A000198381E061E07E010894E11CF11CA70144
:1001B00021E0A8DF198381E062E0A70121E0A2DF4E
:1001C00083E0898381E063E0A70121E09BDF19835D
:1001D00081E065E0A70121E095DF87E0898381E088
:1001E00066E0A70121E08EDF12E119831A831B83E9
:1001F0001C831D8381E06AE0A70125E083DF19836A
:100200001A831B831C831D8381E060E1A70125E025
:1002100079DF85E0898381E061E1A70121E072DF78
:100220008EE1898381E060E0A70121E06BDF88EE49
:1002300093E028EC30E0F9013197F1F70197D9F715
:100240000F900F900F900F900F90CF91DF911F9113
:10025000FF90EF9008950F931F938C0180E061EE63
:10026000A80120E04FDF80E060EAA80125E04ADF36
:1002700080E29EE4FC013197F1F7C09AE0E4FCE9EA
:100280003197F1F7C0980197F1F71F910F910895F9
:10029000C09A80E197E228EC30E0F9013197F1F75C
:1002A0000197D9F7C098089580E29EE4FC01319748
:1002B000F1F7C0980197F1F787E28FB9779BFECFEE
:1002C0008FB180E29EE40197F1F780E78FB9779BC9
:1002D000FECF8FB180E29EE40197F1F7C09A0895B6
:1002E0006F927F928F929F92AF92BF92CF92DF9246
:1002F000EF92FF920F931F93CF93DF9380919A0019
:10030000843071F08530A9F0833009F002C184E0B7
:1003100080939A00B9DE9093C4008093C300F9C023
:1003200085E080939A00B0DE9093A4008093A300B0
:10033000F0C083E080939A00A7DE9093BE00809384
:10034000BD006091A3007091A4006050724080E0F5
:1003500090E0B7D320E030E24AE85FE344D43B01C9
:100360004C016093CA007093CB008093CC009093B3
:10037000CD006091860070918700809188009091F7
:10038000890020E030E040EF5BEB2DD420E030E04E
:1003900040E250E499D25B016C0160938600709357
:1003A000870080938800909389006091820070910B
:1003B0008300809184009091850020E030E040EF40
:1003C0005BEB11D420E030E040E250E47DD27B01D1
:1003D0008C016093820070938300809384009093DB
:1003E0008500C601B501A6019501FDD35B016C0135
:1003F0006093B9007093BA008093BB009093BC00E7
:10040000C801B701A8019701EED37B018C0160936D
:10041000BF007093C0008093C1009093C200C401DC
:10042000B301A4019301DFD39B01AC016091B5003E
:100430007091B6008091B7009091B80045D260935A
:10044000B5007093B6008093B7009093B8006091A8
:100450009F007091A0008091A1009091A200A60140
:10046000950132D260939F007093A0008093A10009
:100470009093A2006091A5007091A6008091A700C2
:100480009091A800A80197011FD26093A5007093D6
:10049000A6008093A7009093A800C601B501E0D202
:1004A000EB0177FF03C0D095C195DF4FC801B701BD
:1004B000D7D2CB0177FF03C0909581959F4F8C17C2
:1004C0009D075CF46091910070919200809193007F
:1004D00090919400A60195010AC0609191007091DD
:1004E00092008091930090919400A8019701ECD123
:1004F0006093910070939200809393009093940086
:100500008091CE009091CF0001969093CF00809380
:10051000CE00DF91CF911F910F91FF90EF90DF9070
:10052000CF90BF90AF909F908F907F906F900895E5
:100530001F920F920FB60F9211242F933F934F9358
:100540005F936F937F938F939F93AF93BF93EF933B
:10055000FF93C6DEFF91EF91BF91AF919F918F9175
:100560007F916F915F914F913F912F910F900FBEAF
:100570000F901F90189578941F920F920FB60F92BC
:1005800011248F9381E08093C9008F910F900FBE4B
:100590000F901F9018952F923F924F925F926F92FB
:1005A0007F928F929F92AF92BF92CF92DF92EF9203
:1005B000FF920F931F93DF93CF9300D000D0CDB75E
:1005C000DEB7A0909F00B090A000C090A100D09096
:1005D000A200A092AD00B092AE00C092AF00D09247
:1005E000B0006090A5007090A6008090A700909049
:1005F000A8006092B1007092B2008092B300909215
:10060000B4002090B5003090B6004090B7005090F4
:10061000B80020929B0030929C0040929D00509226
:100620009E008091910090919200A0919300B091D2
:10063000940089839A83AB83BC838093D00090938A
:10064000D100A093D200B093D3006091CE007091FE
:10065000CF0070938B0060938A0020E030E040E090
:1006600050E020939F003093A0004093A10050934E
:10067000A2002093A5003093A6004093A7005093BA
:10068000A8002093B5003093B6004093B700509374
:10069000B8002093910030939200409393005093C0
:1006A00094001092CF001092CE0080E090E009D22A
:1006B0007B018C01C601B501A801970169D1FAD26D
:1006C00060938C0070938D0080938E0090938F00C8
:1006D000C401B301A80197015BD1ECD260939600ED
:1006E000709397008093980090939900C201B10194
:1006F000A80197014DD1DED26093C5007093C6006A
:100700008093C7009093C80069817A818B819C8116
:10071000A80197013DD1CED26093A9007093AA00A1
:100720008093AB009093AC00A0D19B0140E050E0DF
:1007300068E078EE80E090E034D326503F4F30936D
:100740008100209380003BBD2ABD0F900F900F9039
:100750000F90CF91DF911F910F91FF90EF90DF905D
:10076000CF90BF90AF909F908F907F906F905F9051
:100770004F903F902F9008955F926F927F928F924B
:100780009F92AF92BF92CF92DF92EF92FF920F9320
:100790001F93DF93CF93CDB7DEB72E970FB6F894A4
:1007A000DEBF0FBECDBF50DCE7DC80E06BE092DC4B
:1007B0003E010894611C711C90E2592E82E0882E43
:1007C000912C8C0E9D1E8091CE009091CF00805276
:1007D0009E4408F0E0DE8091C900882341F180E06A
:1007E00061E6A30121E08EDC8981282F217020930E
:1007F0009000982F9E779093950080788093D400F6
:10080000213011F4929A01C09298992361F49923AE
:1008100029F05FBC949A213049F403C01FBCC29AEE
:10082000949A959A04C01FBCC29894989598809108
:10083000D400882341F28091C5009091C600209198
:10084000C7003091C8008E879D872C873B87D0904A
:100850008C00C0908D00B0908E00A0908F00109101
:10086000960000919700F0909800E09099006D2D0F
:100870007C2D8B2D9A2D212F302F4F2D5E2DAFD11A
:1008800018162CF4DA86C986B886AF8204C01A8797
:100890000987F886EF828091A9009091AA002091A3
:1008A000AB003091AC008E839D832C833B83809181
:1008B000950090919000890F8A8380E060EAA401FE
:1008C0002DE020DC80CF5058BB27AA270ED04DC189
:1008D0003ED130F043D120F031F49F3F11F41EF4AB
:1008E00033C10EF4E095E7FB29C1E92F4FD180F326
:1008F000BA17620773078407950718F071F49EF51D
:1009000067C10EF4E0950B2EBA2FA02D0B01B90193
:1009100090010C01CA01A0011124FF27591B99F075
:10092000593F50F4503E68F11A16F040A22F232F81
:10093000342F4427585FF3CF469537952795A795D1
:10094000F0405395C9F77EF41F16BA0B620B730B78
:10095000840BBAF09150A1F0FF0FBB1F661F771FE9
:10096000881FC2F70EC0BA0F621F731F841F48F49E
:10097000879577956795B795F7959E3F08F0B3CF24
:100980009395880F08F09927EE0F9795879508950E
:100990000CD0EBC0E3D040F0DAD030F021F45F3F70
:1009A00019F0CCC0511115C1CFC0F0D098F39923E4
:1009B000C9F35523B1F3951B550BBB27AA27621723
:1009C0007307840738F09F5F5F4F220F331F441F68
:1009D000AA1FA9F333D00E2E3AF0E0E830D09150A0
:1009E0005040E695001CCAF729D0FE2F27D0660F8D
:1009F000771F881FBB1F261737074807AB07B0E8CC
:100A000009F0BB0B802DBF01FF2793585F4F2AF0E1
:100A10009E3F510568F092C0DCC05F3FECF3983E0A
:100A2000DCF3869577956795B795F7959F5FC9F73E
:100A3000880F911D9695879597F90895E1E0660FC7
:100A4000771F881FBB1F621773078407BA0720F040
:100A5000621B730B840BBA0BEE1F88F7E0950895A9
:100A600004D06894B111B5C0089598D088F09F570C
:100A700090F0B92F9927B751A0F0D1F0660F771FEA
:100A8000881F991F1AF0BA95C9F712C0B13081F0CA
:100A90009FD0B1E008959CC0672F782F8827B85F5A
:100AA00039F0B93FCCF3869577956795B395D9F72B
:100AB0003EF490958095709561957F4F8F4F9F4F35
:100AC0000895E89409C097FB3EF490958095709541
:100AD00061957F4F8F4F9F4F9923A9F0F92F96E98A
:100AE000BB279395F695879577956795B795F111FF
:100AF000F8CFFAF4BB0F11F460FF1BC06F5F7F4F9C
:100B00008F4F9F4F16C0882311F096E911C07723AD
:100B100021F09EE8872F762F05C0662371F096E8B6
:100B2000862F70E060E02AF09A95660F771F881F85
:100B3000DAF7880F9695879597F9089597F99F6743
:100B400080E870E060E008959FEF80EC0895002455
:100B50000A941616170618060906089500240A9422
:100B600012161306140605060895092E0394000CA8
:100B700011F4882352F0BB0F40F4BF2B11F460FF37
:100B800004C06F5F7F4F8F4F9F4F089557FD905860
:100B9000440F551F59F05F3F71F04795880F97FB41
:100BA000991F61F09F3F79F08795089512161306FB
:100BB0001406551FF2CF4695F1DF08C0161617062A
:100BC0001806991FF1CF869571056105089408955F
:100BD000E894BB2766277727CB0197F90895A8D01B
:100BE00008F48FEF08950BD0C0CFB1DF28F0B6DF47
:100BF00018F0952309F0A2CFA7CF1124EACFC6DFC2
:100C0000A0F3959FD1F3950F50E0551F629FF0011F
:100C1000729FBB27F00DB11D639FAA27F00DB11D78
:100C2000AA1F649F6627B00DA11D661F829F222701
:100C3000B00DA11D621F739FB00DA11D621F839F88
:100C4000A00D611D221F749F3327A00D611D231F5E
:100C5000849F600D211D822F762F6A2F11249F57AC
:100C600050408AF0E1F088234AF0EE0FFF1FBB1FCF
:100C7000661F771F881F91505040A9F79E3F51056E
:100C800070F05CCFA6CF5F3FECF3983EDCF3869527
:100C900077956795B795F795E7959F5FC1F7FE2B19
:100CA000880F911D9695879597F9089511F40EF484
:100CB0004BCF62C073DFD0F39923D9F3CEF39F57A4
:100CC000550B87FF67D00024A0E640EA90018058CA
:100CD0005695979528F4805C660F771F881F20F043
:100CE00026173707480730F4621B730B840B202943
:100CF00031294A2BA69517940794202531254A2798
:100D000058F7660F771F881F20F026173707480708
:100D100030F4620B730B840B200D311D411DA09527
:100D200081F7B901842F9158880F9695879508957A
:100D3000990F0008550FAA0BE0E8FEEF16161706EC
:100D4000E807F907C0F012161306E407F50798F054
:100D5000621B730B840B950B39F40A2661F0232B6D
:100D6000242B252B21F408950A2609F4A140A695E9
:100D70008FEF811D811D08959F3F31F0915020F428
:100D8000879577956795B795880F911D9695879567
:100D900097F9089591505040660F771F881FD2F73A
:100DA000089597FB092E05260ED057FD04D014D0C8
:100DB0000AD0001C38F450954095309521953F4F4E
:100DC0004F4F5F4F0895F6F7909580957095619518
:100DD0007F4F8F4F9F4F0895A1E21A2EAA1BBB1B76
:100DE000FD010DC0AA1FBB1FEE1FFF1FA217B307F7
:100DF000E407F50720F0A21BB30BE40BF50B661F0D
:100E0000771F881F991F1A9469F7609570958095D0
:100E100090959B01AC01BD01CF010895F894FFCFDF
:00000001FF
